:100000000C9434000C9449000C9449000C94490061
:100010000C9449000C9449000C9449000C9449003C
:100020000C9449000C9449000C9449000C9449002C
:100030000C9449000C9449000C9449000C9449001C
:100040000C9449000C9449000C94C8020C9449008B
:100050000C9449000C9449000C9449000C944900FC
:100060000C9449000C94490011241FBECFEFD8E036
:10007000DEBFCDBF11E0A0E0B1E0E4E5F6E002C0F4
:1000800005900D92AE30B107D9F70E94EE020C94A4
:1000900028030C9400009B01AC0160E079E08DE343
:1000A00090E00E9406032150304040405040569559
:1000B000479537952795832F992787FD9A958093A4
:1000C000C5002093C400E0ECF0E080818260808372
:1000D00088E98093C10086E08093C20008952A9841
:1000E00008952A9A08952A988CE284B980E58CBDF7
:1000F00081E08DBD08958EBD0DB407FEFDCF8EB598
:1001000008959091C00095FFFCCF95E39A95F1F783
:1001100000008093C60008958091C00087FFFCCF47
:100120008091C6000895EF92FF92CF93DF93E82E5F
:10013000E7017E01F92EE70120E030E0FC010190AB
:100140000020E9F73197E81BF90B2E173F0770F4F1
:1001500059914091C00045FFFCCF45E34A95F1F726
:1001600000005093C6002F5F3F4FE8CFDF91CF9143
:10017000FF90EF900895EF92FF920F931F9380915D
:10018000C00087FFFCCF8091C600992787FD90951E
:10019000A92FB92F2091C00027FFFCCFE090C60007
:1001A000FF24E7FCF0940F2D1F2D102F0F2DFE2C98
:1001B000EE242091C00027FFFCCF2091C6003327FA
:1001C00027FD3095432F532FA901332722272E29AE
:1001D0003F29402B512B282B392B4A2B5B2BB90164
:1001E000CA011F910F91FF90EF900895AF92BF92B7
:1001F000CF92DF92EF92FF920F931F93843009F416
:10020000ABC0853008F4CAC0803109F430C18131F7
:1002100008F444C1823109F463C1833109F040C15B
:10022000F8948091C00087FFFCCF8091C600992789
:1002300087FD9095A92FB92F2091C00027FFFCCFF3
:10024000E090C600FF24E7FCF0940F2D1F2D102F27
:100250000F2DFE2CEE242091C00027FFFCCF209113
:10026000C600332727FD3095432F532FA90133278D
:1002700022272E293F29402B512B282B392B4A2B63
:100280005B2B8091C00087FFFCCFA090C600BB24F1
:10029000A7FCB094CB2CDB2C8091C00087FFFCCF57
:1002A000E090C600FF24E7FCF0940F2D1F2D102FC7
:1002B0000F2DFE2CEE248091C00087FFFCCF809193
:1002C000C600992787FD9095A92FB92FDC019927A2
:1002D00088278E299F29A02BB12B8A299B29AC29FD
:1002E000BD292A98211531054105510581F06091FC
:1002F000C00067FFFCCF6091C6006EBD0DB407FE65
:10030000FDCF6EB5215030404040504081F72091E4
:10031000C00025FFFCCFE5E3EA95F1F7000026E0F9
:100320002093C6000097A105B10599F01EBC0DB43D
:1003300007FEFDCF3EB52091C00025FFFCCFF5E3C1
:10034000FA95F1F700003093C6000197A109B109B1
:1003500069F72A9A7894A4C08091C00085FFFCCFE9
:1003600085E38A95F1F7000086E08093C6008091CE
:10037000C00085FFFCCFE5E3EA95F1F700008FEFC1
:100380008093C6008091C00085FFFCCFF5E3FA950D
:10039000F1F700008FEF8093C60082C08130D1F169
:1003A000813008F458C0823009F4AFC0833009F0BE
:1003B00077C08091C00085FFFCCF85E38A95F1F777
:1003C000000086E08093C60020E030E080E090E00E
:1003D00020503F4FF90130812091C00025FFFCCF14
:1003E000F5E3FA95F1F700003093C60001969C0101
:1003F0008D30910569F783E090E02091C00025FFE2
:10040000FCCF25E32A95F1F700001092C600019772
:10041000A1F746C08091C00085FFFCCF85E38A9597
:10042000F1F7000086E08093C6008091C00085FF50
:10043000FCCFE5E3EA95F1F7000081E08093C60088
:100440008091C00085FFFCCFF5E3FA95F1F700003D
:100450001092C60025C08091C00085FFFCCF25E327
:100460002A95F1F7000086E08093C60019C08091BC
:10047000C00085FFFCCFE5E3EA95F1F7000085E1D8
:100480008093C6008091C00085FFFCCFF5E3FA950C
:10049000F1F7000086E08093C60002C0853049F085
:1004A0001F910F91FF90EF90DF90CF90BF90AF9092
:1004B00008958091C00085FFFCCF25E32A95F1F7D0
:1004C000000086E08093C6008091C00085FFFCCFCD
:1004D00085E38A95F1F7000088E08093C600E0CFBD
:1004E0008091C00087FFFCCF8091C600883009F45E
:1004F00046C08091C00085FFFCCF85E38A95F1F767
:10050000000085E18093C600CBCF8091C00085FFBD
:10051000FCCF25E32A95F1F7000086E08093C60022
:100520008091C00085FFFCCF85E38A95F1F700003C
:100530008FE38093C6008091C00085FFFCCFE5E388
:10054000EA95F1F700001092C6008091C00085FF87
:10055000FCCFF5E3FA95F1F700008DE08093C6003B
:100560008DE190E02091C00025FFFCCF25E32A9586
:10057000F1F700001092C6000197A1F791CF80918A
:10058000C00085FD6CCF8091C00085FFF8CF67CF9C
:100590001F920F920FB60F9211242F933F934F93F8
:1005A0005F936F937F938F939F93AF93BF93EF93DB
:1005B000FF938091C6000E94F600FF91EF91BF91DA
:1005C000AF919F918F917F916F915F914F913F91EB
:1005D0002F910F900FBE0F901F9018951092C5008D
:1005E0001092C4008091C00082608093C00088E9AE
:1005F0008093C10086E08093C2002A988CE284B97F
:1006000080E58CBD81E08DBD7894FFCFA1E21A2EEC
:10061000AA1BBB1BFD010DC0AA1FBB1FEE1FFF1FA6
:10062000A217B307E407F50720F0A21BB30BE40BF6
:10063000F50B661F771F881F991F1A9469F760953D
:100640007095809590959B01AC01BD01CF010895F7
:04065000F894FFCF4C
:0E06540073657270726F672D6475696E6F004A
:00000001FF
